:020000040000FA
:10000000D2EF30F0C96E120021EF28F085EC18F025
:10001000E5EC0CF0FDD7120073EF2BF0D9CFE5FF24
:10002000E1CFD9FF00C0E5FF01C0E5FF02C0E5FF59
:1000300003C0E5FF04C0E5FF05C0E5FF06C0E5FF1E
:1000400007C0E5FF08C0E5FF09C0E5FF0AC0E5FFFE
:100050000BC0E5FF0CC0E5FF0DC0E5FF0EC0E5FFDE
:100060000FC0E5FF10C0E5FF11C0E5FF12C0E5FFBE
:1000700013C0E5FF14C0E5FF15C0E5FF16C0E5FF9E
:1000800017C0E5FF18C0E5FF19C0E5FF1AC0E5FF7E
:100090001BC0E5FF1CC0E5FF1DC0E5FF1EC0E5FF5E
:1000A0001FC0E5FF20C0E5FF21C0E5FF22C0E5FF3E
:1000B00023C0E5FF24C0E5FF25C0E5FF26C0E5FF1E
:1000C00027C0E5FF020EDBCF00F0030EDBCF01F00F
:1000D000040EDBCF02F00250086E0150076E005094
:1000E000066EE56A100EE56E0850E56E0750E56E87
:1000F0000650E56E800EE56E040EE56EE80EE56EC8
:10010000AEEC24F0080EE126F0C403F0F1C404F0D4
:10011000F2C405F0F3C406F003C007F004C008F011
:1001200005C009F006C00AF0D8800AAED8900AE3EC
:100130000A1E091E081E076C05E1082A03E1092AA8
:10014000D8B40A2AE8C40BF0E9C40CF0E86A040148
:10015000E9BFFF0E0D6E0E6ED890EC31106EEB31D4
:100160000F6ED89010320F32ED51E840E840C00BCE
:100170001012ED41E8403F0BE8BAC009116E126A57
:1001800011BE12680F500B5C0F6E10500C58106EA1
:1001900011500D58116E12500E58126E800F810FB3
:1001A00008E1FF0E115C05E1FF0E105C02E1FE0E9E
:1001B0000F5CD8A04ED01250800F800F08E1000EC7
:1001C000115C05E1000E105C02E1030E0F5CD8B07B
:1001D00040D00A340A30166E0930156E0830146E9D
:1001E0000730136EF6C417F0F7C418F0E86A04017C
:1001F000F7BFFF0E196E800FF36E1650800FF35C81
:1002000008E11550195C05E11450185C02E1135027
:10021000175C1FE30C50156E15260D34166ED89022
:10022000153616360B44E844FC0B146E0B50E844AC
:10023000E844030B15120401EA6B1450EB6F1550E0
:10024000EC6F1650ED6FF06BF16BF26BF36BF3EF3D
:1002500004F0D89009300C6E08300B6ED8900C3238
:100260000B32D8900C320B320A50E838E844E00BDD
:100270000C120A38E8441F0BE8B8E0090E6A08506F
:10028000076E0950086ED89008320732D8900832AD
:1002900007320A50E840E840C00B08120A40E84024
:1002A0003F0B0BC009F00CC00AF0E86A0CBEFF0E51
:1002B0000D6E0E6E07C013F008C014F0E86A08BE99
:1002C000FF0E156EE56E1550E56E1450E56E135079
:1002D000E56E0E50E56E0D50E56E0A50E56E095064
:1002E000E56EA4EC19F0096EF3CF0AF0F4CF0DF02F
:1002F000E9CF0EF0080EE126F6C413F0F7C414F0AF
:10030000E86A0401F7BFFF0E156E166EE56E155014
:10031000E56E1450E56E1350E56E0E50E56E0D500F
:10032000E56E0A50E56E0950E56E8FEC1DF0096E22
:10033000F3CF0AF0080EE126EEC40DF0EFC40EF084
:10034000E86A0401EFBFFF0E176E0E501B6E1B26EE
:1003500017341C6ED8901B361C360D44E844FC0B39
:100360001A6E0D50E844E844030B1B12196AD8803A
:1003700006AED890D8B07AD109C00DF00AC00EF000
:10038000E86A0ABEFF0E176E800FF36E1250800FE0
:10039000F35C08E11150175C05E110500E5C02E1BE
:1003A0000F500D5CD8B03AD10650800FF36E1C5040
:1003B000800FF35C08E11B50055C05E11A50045CFA
:1003C00002E11950035CD8B002D1F4C40DF0F5C4B9
:1003D0000EF0E86A0401F5BFFF0E176E186E0350A9
:1003E0000D2604500E2205501722065018220D50DB
:1003F0000401F06F0E50F16F1750F26F1850F36F49
:10040000F6C40DF0F7C40EF0F4C417F0F5C418F0FC
:100410000E50800FF36E1850800FF35C02E11750FE
:100420000D5CD8B0B8D0F0C41DF0F1C41EF0F2C419
:100430001FF0F3C420F0D8901F30226E1E30216EC2
:10044000D89022322132D890223221322050E838FE
:10045000E844E00B22122038E8441F0BE8B8E0091A
:10046000246A21500B6E22500C6ED8901F30226EE1
:100470001E30216ED890223221322050E840E840D0
:10048000C00B22122040E8403F0B2150076E225043
:10049000086E0BC021F00CC022F0E86A0CBEFF0E03
:1004A000236E246E07C025F008C026F0E86A08BE57
:1004B000FF0E276EE56E2750E56E2650E56E25503F
:1004C000E56E2450E56E2350E56E2250E56E215016
:1004D000E56EA4EC19F0216EF3CF22F0F4CF23F0F7
:1004E000E9CF24F0080EE1260DC025F00EC026F05D
:1004F000E86A0EBEFF0E276EE56E2750E56E2650A9
:10050000E56E2550E56E2450E56E2350E56E2250D1
:10051000E56E2150E56E8FEC1DF0216EF3CF22F0D9
:10052000080EE1262150096E22500A6E09C021F002
:100530000AC022F0E86A0ABEFF0E236E246E125033
:10054000800FF36E2450800FF35C08E12350115CA0
:1005500005E12250105C02E121500F5C1CE20D50BD
:10056000175C0D6E0E5018580E6EE86A0EBEFF0E28
:10057000176E186E0D501D5E0E501E5A17501F5AE2
:100580001850205A1D500401F06F1E50F16F1F507B
:10059000F26F2050F36F1C50800FF36E0401F35183
:1005A000800FF35C08E1F2511B5C05E1F1511A5C2C
:1005B00002E1F051195CD8B0EFD119500401F06F8D
:1005C0001A50F16F1B50F26F1C50F36FE5D11C50A5
:1005D000800FF36E0650800FF35C08E105501B5C42
:1005E00005E104501A5C02E10350195CD8B0D4D183
:1005F0001350035C0D6E145004580E6E15500558C0
:10060000176E16500658186E0D500401F06F0E50FC
:10061000F16F1750F26F1850F36FBED1F4C40DF0A4
:10062000F5C40EF0E86A0401F5BFFF0E176E186EF0
:1006300013500D2614500E22155017221650182252
:100640000D50035C0D6E0E5004580E6E1750055879
:10065000176E18500658186E0D500401F06F0E50AA
:10066000F16F1750F26F1850F36F96D10A1E096C94
:10067000D8B40A2A09C00DF00AC00EF0E86A0ABE12
:10068000FF0E176E186E1250800FF36E1850800F09
:10069000F35C08E11750115C05E10E50105C02E1BB
:1006A0000D500F5CD8B055D11C1C186E1B1C176E5A
:1006B0001A1C0E6E191C0D6E0D2A04E10E2A02E1A1
:1006C000174A182A1850800FF36E0650800FF35CFB
:1006D00008E10550175C05E104500E5C02E103508F
:1006E0000D5CD8B00FD1F4C419F0F5C41AF0E86A63
:1006F0000401F5BFFF0E1B6E1C6E1950035C196ED2
:100700001A5004581A6E1B5005581B6E1C50065880
:100710001C6E19500401F06F1A50F16F1B50F26FEC
:100720001C50F36FF6C419F0F7C41AF0F4C41BF0B0
:10073000F5C41CF01A50800FF36E1C50800FF35C50
:1007400002E11B50195CD8B0C1D0F0C41DF0F1C457
:100750001EF0F2C41FF0F3C420F0D8901F30226EB8
:100760001E30216ED89022322132D890223221328E
:100770002050E838E844E00B22122038E8441F0BF0
:10078000E8B8E009236E246A23BE2468241E231ED1
:10079000221E216C05E1222A03E1232AD8B4242A4F
:1007A00021500B6E22500C6ED8901F30226E1E30DE
:1007B000216ED890223221322050E840E840C00B10
:1007C00022122040E8403F0B221E216C02E1222A27
:1007D00000E12150076E2250086EE86A0CBEFF0E41
:1007E000216E226EE86A08BEFF0E236EE56E23506E
:1007F000E56E0850E56E0750E56E2250E56E21501B
:10080000E56E0C50E56E0B50E56EA4EC19F0076E2A
:10081000F3CF08F0F4CF0BF0E9CF0CF0080EE1268F
:1008200019C021F01AC022F0E86A1ABEFF0E236E2A
:10083000E56E2350E56E2250E56E2150E56E0C50BA
:10084000E56E0B50E56E0850E56E0750E56E8FECD7
:100850001DF0076EF3CF08F0080EE126081E076CA6
:1008600002E1082A00E10750096E08500A6EE86AA2
:100870000ABEFF0E076E800FF36E1250800FF35CFE
:1008800008E11150075C05E110500A5C02E10F50CD
:10089000095C1CE219501B5C196E1A501C581A6E28
:1008A000E86A1ABEFF0E076E086E19501D261A5010
:1008B0001E2207501F22085020221D500401F06FF5
:1008C0001E50F16F1F50F26F2050F36F0401F3516F
:1008D000800FF36E1850800FF35C08E11750F25D43
:1008E00005E10E50F15D02E10D50F05DD8B054D03D
:1008F0000D500401F06F0E50F16F1750F26F185049
:10090000F36F4AD00650800FF36E1850800FF35CDF
:1009100008E11750055C05E10E50045C02E10D5042
:10092000035CD8B039D013500324076E1450042050
:10093000086E15500520096E165006200A6E0750E5
:100940000401F06F0850F16F0950F26F0A50F36F15
:1009500023D0F4C407F0F5C408F0E86A0401F5BF39
:10096000FF0E096E0A6E0750132608501422095014
:1009700015220A5016221350032614500422155033
:1009800005221650062203500401F06F0450F16F47
:100990000550F26F0650F36FD8900401F231046EE7
:1009A000F131036ED89004320332F351E840E8404D
:1009B000C00B0412F341E8403F0BE8BAC009056ED2
:1009C000066A05BE0668EA510326EB510422EC5183
:1009D0000522ED5106220350EA6F0450EB6F0550DB
:1009E000EC6F0650ED6FE56A100EE56E800EE56E59
:1009F000040EE56EE80EE56E0250E56E0150E56E00
:100A00000050E56EAEEC24F0080EE126E4CF27F0AE
:100A1000E4CF26F0E4CF25F0E4CF24F0E4CF23F0B8
:100A2000E4CF22F0E4CF21F0E4CF20F0E4CF1FF0B8
:100A3000E4CF1EF0E4CF1DF0E4CF1CF0E4CF1BF0B8
:100A4000E4CF1AF0E4CF19F0E4CF18F0E4CF17F0B8
:100A5000E4CF16F0E4CF15F0E4CF14F0E4CF13F0B8
:100A6000E4CF12F0E4CF11F0E4CF10F0E4CF0FF0B8
:100A7000E4CF0EF0E4CF0DF0E4CF0CF0E4CF0BF0B8
:100A8000E4CF0AF0E4CF09F0E4CF08F0E4CF07F0B8
:100A9000E4CF06F0E4CF05F0E4CF04F0E4CF03F0B8
:100AA000E4CF02F0E4CF01F0E4CF00F0E4CFD9FFCF
:100AB0001200D9CFE5FFE1CFD9FF00C0E5FF01C0AB
:100AC000E5FF02C0E5FF03C0E5FF04C0E5FF05C088
:100AD000E5FF06C0E5FF07C0E5FF08C0E5FF09C068
:100AE000E5FF0AC0E5FF0BC0E5FF0CC0E5FF0DC048
:100AF000E5FF0EC0E5FF0FC0E5FF10C0E5FF11C028
:100B0000E5FF12C0E5FF13C0E5FF14C0E5FF15C007
:100B1000E5FF16C0E5FF17C0E5FF18C0E5FF19C0E7
:100B2000E5FF1AC0E5FF1BC0E5FF1CC0E5FF1DC0C7
:100B3000E5FF1EC0E5FF020EDBCF00F0030EDBCFAA
:100B400001F0040EDBCF02F0050EDBCF03F0060E42
:100B5000DBCF04F0070EDBCF05F0080EDBCF06F08D
:100B6000090EDBCF07F00A0EDBCF08F0096A0A6A2C
:100B700002C00DF00D50800A0DE102500301286FF4
:100B80000150276F0050266F030E016E260E006E77
:100B9000800E026E03C0E9FF04C0F3FF05501CEC99
:100BA00031F00B6E0B50D8B40FEF09F00B50250A43
:100BB00002E0F6EF08F00C6A0D6A0E6A0F6A106A1E
:100BC0000A0E116E126A136A146A200E156E1668E8
:100BD000176A2B0E186E032A02E3044A052A03C083
:100BE000E9FF04C0F3FF05501CEC31F0196E250A33
:100BF00013E11950E56E0250E56E0150E56E0050AC
:100C0000E56E15EC23F0040EE126094A0A2A032AB0
:100C100002E3044A052ABED71950300A06E1300E15
:100C2000156E032A02E3044A052A03C0E9FF04C043
:100C3000F3FF05501CEC31F02D0A06E1010E146E95
:100C4000032A02E3044A052A03C0E9FF04C0F3FFB4
:100C500005501CEC31F0200A08E1010E176E200E41
:100C6000186E032A02E3044A052A03C0E9FF04C000
:100C7000F3FF05501CEC31F02B0A06E1010E176E54
:100C8000032A02E3044A052A03C0E9FF04C0F3FF74
:100C900005501CEC31F0196E310E195C2BE33A0E45
:100CA000195C28E203C019F004C01AF005C01BF05B
:100CB00019C0E9FF1AC0F3FF1B501CEC31F01C6E89
:100CC000300E1C5C11E33A0E1C5C0EE213500A0D50
:100CD000F3CF1DF01C501D26D00E1D24136E192AB3
:100CE00002E31A4A1B2AE4D719C003F01AC004F021
:100CF0001BC005F003C0E9FF04C0F3FF05501CEC66
:100D000031F02E0A2DE1032A02E3044A052A166A6D
:100D100003C019F004C01AF005C01BF019C0E9FFA8
:100D20001AC0F3FF1B501CEC31F01C6E300E1C5C23
:100D300011E33A0E1C5C0EE216500A0DF3CF1DF0C3
:100D40001C501D26D00E1D24166E192A02E31A4AC5
:100D50001B2AE4D719C003F01AC004F01BC005F029
:100D600003C0E9FF04C0F3FF05501CEC31F0196E1D
:100D70006C0A07E1010E0C6E032A02E3044A052AFD
:100D800009D01950680A06E1010E0E6E032A02E32B
:100D9000044A052A03C0E9FF04C0F3FF05501CEC18
:100DA00031F0750A06E1010E106E032A02E3044ACF
:100DB000052A03C0E9FF04C0F3FF05501CEC31F025
:100DC000196E730A05E1010E0D6E200E156E3FD0EF
:100DD0001950780A03E1100E116E39D01950580AD3
:100DE00005E1100E116E010E126E31D01950630A1A
:100DF00002E1116A2CD019506F0A03E1080E116E3E
:100E000026D01950660A03E1010E0F6E20D019504A
:100E1000640A1DE01950690A1AE0105005E0FF0E3F
:100E200003260422052213D01950E56E0250E56E08
:100E30000150E56E0050E56E15EC23F0040EE1263E
:100E4000094A0A2A032A02E3044A052AA3D60D50B6
:100E500021E00650030F0D6E000E0720196E000EE4
:100E600008201A6E0DC006F019C007F01AC008F06D
:100E7000FD0E0D26FF0E19221A220DC0E9FF19C022
:100E8000F3FF1A50E7EC2FF00D6EF3CF19F0F4CF0B
:100E90001AF0FDD00F500DE0000E1A6E120E196EF2
:100EA000A60E0D6E040E0626000E072208221668F6
:100EB000EED016680C5023E00650040F0C6E000EA6
:100EC00007200F6E000E08201B6E0CC006F00FC02E
:100ED00007F01BC008F0FC0E0C26FF0E0F221B2291
:100EE0000CC0E9FF0FC0F3FF1B506DEC2FF00C6E30
:100EF000F3CF0FF0F4CF1BF0E9CF1CF067D00E500A
:100F00002FE00650020F0E6E000E07201D6E000E21
:100F100008201E6E0EC006F01DC007F01EC008F0AF
:100F2000FE0E0E26FF0E1D221E220EC0E9FF1DC062
:100F3000F3FF1E50A6EC30F00E6E0EC00CF00F6AE0
:100F40001B6A1C6A11500A0A03E11050D8B43ED043
:100F50000C500E6E0EC00CF00F6A1B6A1C6A36D065
:100F60000650020F0E6E000E07201D6E000E0820A8
:100F70001E6E0EC006F01DC007F01EC008F0FE0E6B
:100F80000E26FF0E1D221E220EC0E9FF1DC0F3FF1C
:100F90001E50A6EC30F00E6EF3CF1DF00EC00CF01C
:100FA0001DC00FF0E86A1DBEFF0E1B6E1C6E1150B7
:100FB0000A0A02E110500AE00C500E6E0F501D6E2E
:100FC0000EC00CF01DC00FF01B6A1C6A040E196ED7
:100FD000540E0D6E800E1A6E1150D8B440D01050C1
:100FE00013E01150E56E040EE56E540EE56E1C50D4
:100FF000E56E1B50E56E0F50E56E0C50E56EB3ECE0
:101000001CF0070EE12612D01150E56E040EE56EBD
:10101000540EE56E1C50E56E1B50E56E0F50E56EEC
:101020000C50E56EBEEC27F0070EE12617502FE0BE
:101030000DC0E9FF19C0F3FF1A501CEC31F02D0A66
:1010400026E0FF0E0D2619221A2218C0E5FF0DC05A
:10105000E9FF19C0F3FF1A50A3EC31F018D00CC00F
:10106000E5FF0DC0E9FF19C0F3FF1A50A3EC31F002
:101070000D50010F0C6E000E19200E6E000E1A207E
:10108000E56A0CC0E9FF0EC0F3FFA3EC31F00DC020
:101090000CF019C00EF01AC00FF013C010F0105071
:1010A00010E00CC0E9FF0EC0F3FF0F501CEC31F054
:1010B000176E175006E00C2A02E30E4A0F2A10069C
:1010C000EED710C013F014501EE109C00CF00AC096
:1010D0000EF010C00FF00F5010E01550E56E0250EA
:1010E000E56E0150E56E0050E56E15EC23F0040E40
:1010F000E1260C4A0E2A0F06EED70CC009F00EC0EE
:101100000AF00FC013F016C00CF00DC00DF019C09E
:101110000EF01AC00FF009C010F00AC015F00DC093
:10112000E9FF0EC0F3FF0F501CEC31F0166E1650A5
:10113000D8B43ED00CC016F0176A161E171E1650F3
:10114000171005E00CC016F00C06165031E00DC06B
:10115000E9FF0EC0F3FF0F501CEC31F0116E12507E
:1011600010E01150E56E63EC30F0166EE65216504A
:1011700004E0DF0E1114166E02D011C016F016C076
:1011800011F01150E56E0250E56E0150E56E005011
:10119000E56E15EC23F0040EE1260D2A02E30E4A5B
:1011A0000F2A104A152A1350D8B4B9D71306B7D747
:1011B00010C009F015C00AF014502BE010C00CF05C
:1011C00015C00DF013C00EF00E501FE0200EE56E9E
:1011D0000250E56E0150E56E0050E56E15EC23F00F
:1011E000040EE1260C4A0D2A0E06EED70B50E56ED2
:1011F0000250E56E0150E56E0050E56E15EC23F0EF
:10120000040EE126094A0A2A04D00CC009F00DC0D8
:101210000AF0032A02E3044A052ACAEF05F00AC0CD
:10122000F3FF0950E4CF1EF0E4CF1DF0E4CF1CF033
:10123000E4CF1BF0E4CF1AF0E4CF19F0E4CF18F0BC
:10124000E4CF17F0E4CF16F0E4CF15F0E4CF14F0BC
:10125000E4CF13F0E4CF12F0E4CF11F0E4CF10F0BC
:10126000E4CF0FF0E4CF0EF0E4CF0DF0E4CF0CF0BC
:10127000E4CF0BF0E4CF0AF0E4CF09F0E4CF08F0BC
:10128000E4CF07F0E4CF06F0E4CF05F0E4CF04F0BC
:10129000E4CF03F0E4CF02F0E4CF01F0E4CF00F0BC
:1012A000E4CFD9FF12003C4E4F20464C4F41543EF4
:1012B0000000D9CFE5FFE1CFD9FF00C0E5FF01C0B5
:1012C000E5FF02C0E5FF03C0E5FF04C0E5FF05C080
:1012D000E5FF06C0E5FF07C0E5FF08C0E5FF09C060
:1012E000E5FF0AC0E5FF0BC0E5FF0CC0E5FF0DC040
:1012F000E5FF020EDBCF00F0030EDBCF01F0040EA2
:10130000DBCF02F00050090F066E000E0120076EC1
:10131000000E0220086E0B6E07500A6E0650096E12
:10132000E56A0D0EE56E0B50E56E0A50E56E09504C
:10133000E56E800EE56E040EE56E390EE56EAEECE0
:1013400024F0080EE12600C009F001C00AF002C036
:101350000BF0E56AE56E0B50E56E0A50E56E09503C
:10136000E56E800EE56E040EE56E810EE56EAEEC68
:1013700024F0080EE12681C403F00350010A04E0C2
:101380000350030A01E019D104014E51036E4F517D
:10139000046E04014151056E4251096E0550035C13
:1013A00003012F6F09500458306F04014E5104019E
:1013B000416F04014F510401426F04015051040177
:1013C000436F040151510401446F03012F51301147
:1013D000D8A47FD05BEC2EF0036EF3CF04F0F4CFF3
:1013E00005F0E9CF09F0040146510A6E47510B6E32
:1013F00048510C6E49510D6E0A50035E0B50045A51
:101400000C50055A0D50095A03500401706F0450D6
:10141000716F0550726F7F0E0914736F040145B12F
:1014200025D0040171357331046E7231036E0434BA
:1014300004320332000E04BEFF0E096E056E86C430
:101440000AF00B6A0C6A0D6A0D50800FF36E09509A
:10145000800FF35C08E105500C5C05E104500B5C67
:1014600002E103500A5C02E204014581040145B136
:101470004AD03DC403F03EC404F03FC405F040C46C
:1014800009F004017351800FF36E0950800FF35C73
:1014900008E10550725D05E10450715D02E1035001
:1014A000705D08E203C070F404C071F405C072F40A
:1014B00009C073F4040152A303D0010E036E01D0DE
:1014C000036803C02FF30301306B03AE01D0306912
:1014D0001AD0040145914AC470F44BC471F44CC451
:1014E00072F44DC473F40401705104013D6F0401A2
:1014F000715104013E6F0401725104013F6F0401F8
:1015000073510401406F04017351800F800F08E193
:10151000000E725D05E1000E715D02E1010E705D6D
:1015200006E20401746B756B766B776B46D0040131
:101530007051036E7151046E7251056E7351E56EF8
:101540000550E56E0450E56E0350E56E010EE56E44
:10155000000EE56AE56AE56ADEEC20F0036EF3CF83
:1015600004F0F4CF05F0E9CF09F0080EE1262FC30F
:101570000AF030C30BF0E86A030130BFFF0E0C6EB7
:101580000D6E0950E56E0550E56E0450E56E035092
:10159000E56E0D50E56E0C50E56E0B50E56E0A5091
:1015A000E56EA4EC19F00401746FF3CF75F4F4CF79
:1015B00076F4E9CF77F4080EE126020E0401815D8E
:1015C000D8A045D1040152A142D10050230F036E8F
:1015D000000E0120046E000E0220E56E0450E56E40
:1015E0000350E56E0EEC00F0030EE1260050230FD1
:1015F000036E000E0120046E000E0220056E020E26
:101600000326000E0422052203C0E9FF04C0F3FFF5
:1016100005506DEC2FF0F3CF04F0F4CF05F0E9CFD7
:1016200009F00450036E0550046ED8900432033262
:10163000D890043203320950E840E840C00B04124D
:101640000940E8403F0BE8BAC009056E096A05BECB
:10165000096804014E51035C0401786F04014F5185
:1016600004580401796F04015051055804017A6F40
:1016700004015151095804017B6FD8807BAFD89089
:1016800022E30401831D046E821D036E034A042AB3
:10169000E86A04BEFF0E056E096E04017B51800FDF
:1016A000F36E0950800FF35C08E105507A5D05E1A7
:1016B0000450795D02E10350785D05E30401786B25
:1016C000796B7A6B7B6B04017B51800F800F08E193
:1016D000000E7A5D05E1000E795D02E1010E785D94
:1016E0001EE382C403F083C404F0E86A040183BFEC
:1016F000FF0E056E800FF36E04017B51800FF35CCB
:1017000008E17A51055C05E17951045C02E1785108
:10171000035C05E30401786B796B7A6B7B6B0401E6
:10172000875109E0E86CD8900401783779377A3727
:101730007B37010FF9E304017B51800F800F08E133
:10174000000E7A5D05E1800E795D02E1000E785DA4
:1017500007E3040178697F0E796F7A6B7B6B14D095
:1017600004017B51800F810F08E1FF0E7A5D05E1D6
:10177000800E795D02E1000E785D06E20401786B6F
:10178000800E796F7A697B690050330F036E000E0B
:101790000120046E000E0220056E04017851096ECE
:1017A0007951E56E0950E56E0550E56E0450E56E21
:1017B0000350E56E2DEC12F0050EE1260401815177
:1017C000030A23E10050330F036E000E0120046E64
:1017D000000E0220056E0B0E0326000E04220522C9
:1017E00003C0E9FF04C0F3FF05506DEC2FF0F3CF09
:1017F00004F0F4CF05F00450036E0550046E03505E
:101800000401396F04503A6F22D00050330F036E39
:10181000000E0120046E000E0220056E0B0E032642
:10182000000E0422052203C0E9FF04C0F3FF0550A7
:101830006DEC2FF0F3CF04F0F4CF05F00450036EFD
:101840000550046E035004013B6F04503C6F81C48B
:1018500003F00350010A04E00350030A01E07DD0C5
:1018600039C403F03AC404F0E86A04013ABFFF0E39
:10187000056E096E04017451035C0401786F040164
:10188000755104580401796F04017651055804011B
:101890007A6F04017751095804017B6F800F800F24
:1018A00008E1000E7A5D05E1800E795D02E1000E2F
:1018B000785D07E3040178697F0E796F7A6B7B6B43
:1018C00014D004017B51800F810F08E1FF0E7A5D77
:1018D00005E1800E795D02E1000E785D06E204010B
:1018E000786B800E796F7A697B690050440F036EC4
:1018F000000E0120046E000E0220056E04017851D6
:10190000096E7951E56E0950E56E0550E56E04509B
:10191000E56E0350E56E2DEC12F0050EE126440E47
:101920000026000E012202220B0E0026000E0122CC
:10193000022200C0E9FF01C0F3FF02506DEC2FF05E
:10194000F3CF01F0F4CF02F00150006E0250016EAF
:10195000005004013B6F01503C6F0850086EE56A6F
:101960000D0EE56E800EE56E040EE56E390EE56E29
:101970000850E56E0750E56E0650E56EAEEC24F0BB
:10198000080EE126E4CF0DF0E4CF0CF0E4CF0BF02D
:10199000E4CF0AF0E4CF09F0E4CF08F0E4CF07F099
:1019A000E4CF06F0E4CF05F0E4CF04F0E4CF03F099
:1019B000E4CF02F0E4CF01F0E4CF00F0E4CFD9FFB0
:1019C000120025642025640A000000C0E5FF01C064
:1019D000E5FF02C0E5FF03C0E5FF04C0E5FF05C069
:1019E000E5FF06C0E5FF07C0E5FF08C0E5FF09C049
:1019F000E5FF0AC0E5FF0BC0E5FFFBEC21F00401A9
:101A00002951D8A45EEC1EF00CC0E5FFF2CF0CF01B
:101A1000F29EB1C4F8F4B2C4F9F4B3C4FAF4B4C495
:101A2000FBF40CBEF28EE4CF0CF0D8800401FBAFC7
:101A3000D89016E35A0EF66E620EF76E000EF86E30
:101A40000900F5CF00F00900F5CF01F0026A036A42
:101A50000050F8270150F9230250FA230350FB23CA
:101A60005A0EF66E620EF76E000EF86E0900F5CF94
:101A700000F00900F5CF01F0026A036A0350800FFD
:101A8000F36E0401FB51800FF35C08E1FA51025C34
:101A900005E1F951015C02E1F851005C13E2040137
:101AA000FB51E56EFA51E56EF951E56EF851E56EC0
:101AB000000EE56E620EE56E5C0EE56EB4EC2BF08A
:101AC000070EE12604012351D8B418D123C400F035
:101AD000016A026A036AE56AE56AE56A0050E56E32
:101AE0000401FB51E56EFA51E56EF951E56EF851CE
:101AF000E56EA4EC19F0046EF3CF05F0F4CF06F018
:101B0000E9CF07F0080EE1265A0EF66E620EF76E68
:101B1000000EF86E0900F5CF08F00900F5CF09F0C6
:101B20000A6A0B6AE56AE56A0950E56E0850E56ED7
:101B30000750E56E0650E56E0550E56E0450E56E03
:101B40008FEC1DF0046E080EE126045003013C6F7B
:101B500003013D1901E1D2D03CC33DF30401B5A31B
:101B600052D03CC304F0056A044A052A23C406F097
:101B7000E56A0650E56E0550E56E0450E56EABEC87
:101B800025F0046EF3CF05F0040EE126E86A05BEE9
:101B9000FF0E066E076E0B50E56E0A50E56E09509B
:101BA000E56E0850E56E0750E56E0650E56E05508F
:101BB000E56E0450E56EA4EC19F0046EF3CF05F069
:101BC000F4CF06F0E9CF07F0080EE1260350E56EEA
:101BD0000250E56E0150E56E0050E56E0750E56E6F
:101BE0000650E56E0550E56E0450E56E8FEC1DF075
:101BF000046EF3CF05F0080EE12604500301296FAF
:101C000005502A6F54D03CC304F0056A23C406F083
:101C1000076A0650042607500522E56A0650E56E5D
:101C20000550E56E0450E56EABEC25F0046EF3CF85
:101C300005F0040EE126E86A05BEFF0E066E076E8B
:101C40000B50E56E0A50E56E0950E56E0850E56EE2
:101C50000750E56E0650E56E0550E56E0450E56EE2
:101C6000A4EC19F0046EF3CF05F0F4CF06F0E9CF41
:101C700007F0080EE1260350E56E0250E56E0150B4
:101C8000E56E0050E56E0750E56E0650E56E0550B6
:101C9000E56E0450E56E8FEC1DF0006EF3CF01F0A1
:101CA000080EE12600500301296F01502A6F03013D
:101CB0003E5106E104012B51E56EB0EC1FF0E652F7
:101CC00004012C5103E004019E6B9F6B0401FB5146
:101CD000E56EFA51E56EF951E56EF851E56E0301D6
:101CE0002A51E56E2951E56E000EE56E620EE56E35
:101CF000660EE56EB4EC2BF0090EE1265BEC2EF0DF
:101D0000006EF3CF01F0F4CF02F0E9CF03F004014D
:101D10008E51005E8F51015A9051025A9151035ACF
:101D2000039E3F0E035C08E1FF0E025C05E1FF0E1F
:101D3000015C02E1FF0E005CD8B019D15BEC2EF023
:101D4000F3CF01F0F4CF02F0E9CF03F0D00F04019C
:101D50008E6F070E01208F6F000E0220906F000E15
:101D60000320916F0CC0E5FFF2CF0CF0F29E04014E
:101D7000A9510401466F0401AA510401476F0401EF
:101D8000AB510401486F0401AC510401496F0401D7
:101D9000AD5104014A6F0401AE5104014B6F0401BF
:101DA000AF5104014C6F0401B05104014D6F0401A7
:101DB000B15104014E6F0401B25104014F6F04018F
:101DC000B3510401506F0401B4510401516F040177
:101DD000B5510401526F0401AD6BAE6BAF6BB06BCC
:101DE0000CBEF28EE4CF0CF0800EE56E040EE56EB4
:101DF000930EE56E59EC09F0030EE1269EC431F313
:101E00009FC432F303013251800F7C0F02E1000EB8
:101E1000315D04E303013169030E326F0301325176
:101E2000800F840F02E1010E315D05E2010E030116
:101E3000316FFC0E326F03013251800F800F02E1CF
:101E4000010E315D10E303013251800FF36E040186
:101E50009751800FF35C03E196510301315D03E27A
:101E60000301316B326BD880030132AFD89015E398
:101E70000401971D016E961D006E004A012A015053
:101E8000800FF36E03013251800FF35C02E1315198
:101E9000005C03E20301316B326B04019AA309D0A9
:101EA000B5A507D0D880030132AFD89002E3316BDB
:101EB000326BD880030132AFD89007E3321D016E38
:101EC000311D006E004A012A04D031C300F032C334
:101ED00001F000C033F301C034F303013351020BAE
:101EE000E840010BE838E844F46E0F015451DF0B71
:101EF000F410546F03013351010B010BE838F46EF9
:101F00000F015451EF0BF410546F03013435343189
:101F1000016E3331006E01340132003200500F0186
:101F2000556FD880030132AFD89003E3899A898E28
:101F300002D0899E898A0401F8510401FC190FE13D
:101F40000401F9510401FD190AE10401FA510401E7
:101F5000FE1905E10401FB510401FF1908E0F8C472
:101F6000FCF4F9C4FDF4FAC4FEF4FBC4FFF4E4CFBE
:101F70000BF0E4CF0AF0E4CF09F0E4CF08F0E4CFAF
:101F800007F0E4CF06F0E4CF05F0E4CF04F0E4CFAF
:101F900003F0E4CF02F0E4CF01F0E4CF00F0120050
:101FA000D9CFE5FFE1CFD9FF00C0E5FF01C0E5FFD4
:101FB00002C0E5FF03C0E5FF04C0E5FF05C0E5FF83
:101FC00006C0E5FF07C0E5FF08C0E5FF09C0E5FF63
:101FD0000AC0E5FF0BC0E5FF0CC0E5FF020EDBCF3A
:101FE00000F0030EDBCF01F0040EDBCF02F0036A3A
:101FF000046A85EC2EF0056EFE0A01E077D043EC12
:102000002AF085EC2EF0066E030E065CD8A05AD09E
:10201000060E065CD8B056D0FD0E0624076EFA6A8E
:10202000FB6A0734FA36E834FA36FC0B3C0FE56EEF
:10203000200EFA22000EFB22E450F96E24EF10F07D
:1020400036EF10F04FEF10F00050090F076E000E42
:102050000120086E000E022007C0E9FF08C0F3FF50
:10206000A6EC30F0036EF3CF04F02CD00050090F33
:10207000076E000E0120086E000E0220096E020E8F
:102080000726000E0822092207C0E9FF08C0F3FF57
:102090000950A6EC30F0036EF3CF04F013D00050DB
:1020A000070F076E000E0120086E000E022007C009
:1020B000E9FF08C0F3FF1CEC31F0010B076E07C00D
:1020C00003F0046A06C007F00450E56E0350E56EA5
:1020D000E56A0750E56E000EE56E190EE56EC20E5C
:1020E000E56EB4EC2BF0070EE1269AD1080E055CE4
:1020F000D8B096D1FA6AFB6A0534FA36E834FA3673
:10210000FC0B120FE56E210EFA22000EFB22E450AA
:10211000F96E99EF10F0B4EF10F0C6EF10F0D8EFB1
:1021200010F00AEF11F040EF11F05FEF11F0BCEF8B
:1021300011F00050230F056E000E0120076E000EF7
:102140000220E56E0750E56E0550E56E5AEC14F07E
:10215000030EE126020EE56E00C0E9FF01C0F3FFA9
:102160000250A3EC31F05CD10050330F056E000E2D
:102170000120076E000E0220E56E0750E56E055047
:10218000E56E11EC16F0030EE1264AD10050440F23
:10219000056E000E0120076E000E0220E56E07504E
:1021A000E56E0550E56E11EC16F0030EE12638D110
:1021B0000050090F056E000E0120076E000E022070
:1021C000086E85EC2EF00C6E0B6AE56A0CC0F4FF0D
:1021D00005C0E9FF07C0F3FF085075EC31F085EC4E
:1021E0002EF00A6A0B260A500C220BC0E5FF0CC029
:1021F000F4FF05C0E9FF07C0F3FF085075EC31F0AC
:10220000010EE56E00C0E9FF01C0F3FF0250A3EC30
:1022100031F006D10050090F056E000E0120076E47
:10222000000E0220086E020E0526000E072208226C
:1022300085EC2EF00C6E0B6AE56A0CC0F4FF05C04D
:10224000E9FF07C0F3FF085075EC31F085EC2EF084
:102250000A6A0B260A500C220BC0E5FF0CC0F4FFE3
:1022600005C0E9FF07C0F3FF085075EC31F0E56ADF
:1022700000C0E9FF01C0F3FF0250A3EC31F0D0D061
:102280000050070F056E000E0120076E000E0220A1
:10229000086E85EC2EF0010BF46E05C0E9FF07C057
:1022A000F3FF08501CEC31F0FE0BF410E56E05C096
:1022B000E9FF07C0F3FF0850A3EC31F0B1D085EC83
:1022C0002EF0066E0050160F056E000E0120076EF0
:1022D000000E0220086E05500C0F096E000E07203C
:1022E0000A6E000E08200B6E0650D880E866D89063
:1022F0000C6A0C360C50D880E866D8900C6A0C3604
:102300000C50010BF46E09C0E9FF0AC0F3FF0B503B
:102310001CEC31F0FE0BF410E56E09C0E9FF0AC0B9
:10232000F3FF0B50A3EC31F00650010A01E078D026
:10233000080E0526000E07220822E56AF46AF66AEE
:10234000F76A05C0E9FF07C0F3FF08500BEC31F056
:102350000050230F056E000E0120066E000E0220B5
:10236000E56AE56AE56E0650E56E0550E56E88ECB7
:1023700022F0050EE12654D085EC2EF0046E036A9F
:1023800085EC2EF0066A0326065004220050160F34
:10239000056E000E0120066E000E0220076E05502D
:1023A0000C0F086E000E0620096E000E07200A6E44
:1023B00008C0E9FF09C0F3FF1CEC31F0E880E56ECE
:1023C00008C0E9FF09C0F3FF0A50A3EC31F0080E82
:1023D0000526000E0622072203C008F004C009F0FB
:1023E00008C0E5FF09C0F4FFF66AF76A05C0E9FF17
:1023F00006C0F3FF07500BEC31F0230E0026000E51
:10240000012202220450E56E0350E56E0250E56E93
:102410000150E56E0050E56E86EC26F0050EE126D3
:10242000E4CF0CF0E4CF0BF0E4CF0AF0E4CF09F0F6
:10243000E4CF08F0E4CF07F0E4CF06F0E4CF05F0F6
:10244000E4CF04F0E4CF03F0E4CF02F0E4CF01F0F6
:10245000E4CF00F0E4CFD9FF1200D9CFE5FFE1CF00
:10246000D9FF00C0E5FF01C0E5FF02C0E5FF03C0E2
:10247000E5FF04C0E5FF05C0E5FF06C0E5FF07C0B6
:10248000E5FF08C0E5FF09C0E5FF0AC0E5FF0BC096
:10249000E5FF020EDBCF00F0030EDBCF01F0040EF0
:1024A000DBCF02F0050EDBCF03F0060EDBCF04F02E
:1024B00002500A6E0150096E0050086EE56A110E56
:1024C000E56E0A50E56E0950E56E0850E56E800E27
:1024D000E56E0F0EE56E230EE56EAEEC24F0080EF1
:1024E000E12632CF05F033CF06F0E86A0F0133BFA3
:1024F000FF0E076E0301036F0650026F0550016F58
:10250000006B03C005F004C006F0E86A04BEFF0ECD
:10251000076E086E23CF09F0E56AE56AE56A09509F
:10252000E56E0850E56E0750E56E0650E56E055005
:10253000E56EA4EC19F004017C6FF3CF7DF4F4CFC9
:102540007EF4E9CF7FF4080EE1260F012451D8B4C0
:10255000AFD00450800F800F02E1010E035C25E331
:102560000F012951800F7C0F08E1000E285D05E165
:10257000000E275D02E1000E265D17E20F013151CA
:10258000800FF36E03010351800FF35C0DE10251E4
:102590000F01305D09E1030101510F012F5D04E1DD
:1025A000030100510F012E5D33E3D88004AED890B3
:1025B000D8A043D00F012951800F840F08E1000EED
:1025C000285D05E1000E275D02E1010E265D35E381
:1025D0000301031D0A6E021D096E011D046E001D1C
:1025E000036E032A04E1042A02E1094A0A2A0A5076
:1025F000800FF36E0F013151800FF35C08E1305111
:10260000095C05E12F51045C02E12E51035C15E2E7
:1026100005500F012625036E06502721046E075032
:102620002821096E085029210A6E0350266F045094
:10263000276F0950286F0A50296F0F0126390F0B99
:10264000036E2739046EF00B041A03262851E8386C
:10265000F00B041228390F0B096E29390A6EF00BA2
:102660000A1A0926F00E0AB60A2624CF0BF0E56AEC
:10267000E56AE56A0B50E56E0A50E56E0950E56EB5
:102680000450E56E0350E56EA4EC19F0036EF3CF31
:1026900004F0F4CF09F0E9CF0AF0080EE126035068
:1026A00004017C2704507D2309507E230A507F2398
:1026B0000F012551D8B465D02A51055C0301046F80
:1026C0000F012B5106580301056F0F012C510758BC
:1026D0000301066F0F012D5108580301076F800F8A
:1026E000800F08E1010E065D05E1000E055D02E1C7
:1026F000000E045D06E3030104690569066B076BC0
:1027000013D003010751800F810F08E1FF0E065D12
:1027100005E1000E055D02E1000E045D05E2030126
:10272000046B056B06690769030104510425036EF8
:102730000535046E0635096E07350A6E25CF0BF098
:10274000E56AE56AE56A0B50E56E0A50E56E0950E8
:10275000E56E0450E56E0350E56EA4EC19F0036ECF
:10276000F3CF04F0F4CF09F0E9CF0AF0080EE12628
:10277000035004017C2704507D2309507E230A5016
:102780007F2305500F012A6F06502B6F07502C6FC7
:1027900008502D6F03010351800FF36E04017F5128
:1027A000800FF35C0DE17E510301025D09E104013C
:1027B0007D510301015D04E104017C510301005DD1
:1027C00011E2030100510F012E6F030101510F01AE
:1027D0002F6F030102510F01306F030103510F01ED
:1027E000316F3AD00301031D066E021D056E011DF7
:1027F000046E001D036E032A04E1042A02E1054A67
:10280000062A04017F51800FF36E0650800FF35C9F
:1028100008E105507E5D05E104507D5D02E1035055
:102820007C5D0AE203500F012E6F04502F6F05509C
:10283000306F0650316F10D004017C510F012E6FA4
:1028400004017D510F012F6F04017E510F01306F84
:1028500004017F510F01316FE56A110EE56E800EA4
:10286000E56E0F0EE56E230EE56E0250E56E01502B
:10287000E56E0050E56EAEEC24F0080EE126E4CFE4
:102880000BF0E4CF0AF0E4CF09F0E4CF08F0E4CF96
:1028900007F0E4CF06F0E4CF05F0E4CF04F0E4CF96
:1028A00003F0E4CF02F0E4CF01F0E4CF00F0E4CF96
:1028B000D9FF1200D9CFE5FFE1CFD9FF00C0E5FF76
:1028C00001C0E5FF02C0E5FF03C0E5FF04C0E5FF6E
:1028D00005C0E5FF06C0E5FF07C0E5FF08C0E5FF4E
:1028E00009C0E5FF0AC0E5FF0BC0E5FF020EDBCF24
:1028F00000F0030EDBCF01F0040EDBCF02F0036A21
:10290000046A85EC2EF0056EFE0A01E094D043ECDB
:102910002AF085EC2EF0066E06500EE00650010AF5
:102920001DE00650020A2CE006500A0A3BE0065061
:102930000B0A01E142D06DD00050060F076E000E69
:102940000120086E000E022007C0E9FF08C0F3FF57
:10295000A6EC30F0036EF3CF04F05BD000500C0F08
:10296000076E000E0120086E000E022007C0E9FF6E
:1029700008C0F3FFA6EC30F0036EF3CF04F049D0AB
:1029800000500E0F076E000E0120086E000E022090
:1029900007C0E9FF08C0F3FFA6EC30F0036EF3CFE9
:1029A00004F037D000C0E9FF01C0F3FF0250A6ECED
:1029B00030F0036EF3CF04F02CD00050020F076EFE
:1029C000000E0120086E000E0220096E07C0E9FF0C
:1029D00008C0F3FF09506DEC2FF0F3CF08F0F4CFEF
:1029E00009F0E9CF0AF00850076E0950086ED89038
:1029F00008320732D890083207320A50E840E840DF
:102A0000C00B08120A40E8403F0B0750036E085005
:102A1000046E0450E56E0350E56EE56A0650E56EFF
:102A2000000EE56E540EE56E7E0EE56EB4EC2BF0F6
:102A3000070EE126DBD0055014E00550010A3AE00C
:102A40000550020A01E15FD005500A0A01E184D075
:102A500005500B0A01E199D005500C0A01E1AED0F6
:102A6000C5D00050060F056E000E0120066E000E48
:102A70000220076E85EC2EF00B6E0A6AE56A0BC029
:102A8000F4FF05C0E9FF06C0F3FF075075EC31F015
:102A900085EC2EF0096A0A2609500B220AC0E5FFD0
:102AA0000BC0F4FF05C0E9FF06C0F3FF075075EC4B
:102AB00031F09CD000500C0F056E000E0120066E08
:102AC000000E0220076E85EC2EF00B6E0A6AE56A96
:102AD0000BC0F4FF05C0E9FF06C0F3FF075075EC1B
:102AE00031F085EC2EF0096A0A2609500B220AC043
:102AF000E5FF0BC0F4FF05C0E9FF06C0F3FF075078
:102B000075EC31F073D000500E0F056E000E0120F1
:102B1000066E000E0220076E85EC2EF00B6E0A6A20
:102B2000E56A0BC0F4FF05C0E9FF06C0F3FF0750DC
:102B300075EC31F085EC2EF0096A0A2609500B225B
:102B40000AC0E5FF0BC0F4FF05C0E9FF06C0F3FFB4
:102B5000075075EC31F04AD085EC2EF0046E036A14
:102B600085EC2EF0066A0326065004220450E56E1A
:102B70000350E56E0250E56E0150E56E0050E56EC3
:102B80005EEC2DF0050EE12631D085EC2EF0046EC2
:102B9000036A85EC2EF0066A0326065004220450D0
:102BA000E56E0350E56E0250E56E0150E56E005093
:102BB000E56E88EC22F0050EE12618D085EC2EF0AB
:102BC000046E036A85EC2EF0066A03260650042282
:102BD0000450E56E0350E56E0250E56E0150E56E5F
:102BE0000050E56E86EC26F0050EE126E4CF0BF0F2
:102BF000E4CF0AF0E4CF09F0E4CF08F0E4CF07F027
:102C0000E4CF06F0E4CF05F0E4CF04F0E4CF03F026
:102C1000E4CF02F0E4CF01F0E4CF00F0E4CFD9FF3D
:102C20001200D9CFE5FFE1CFD9FF00C0E5FF01C019
:102C3000E5FF02C0E5FF03C0E5FF04C0E5FF05C0F6
:102C4000E5FF06C0E5FF07C0E5FF08C0E5FF020E8F
:102C5000DBCF00F0030EDBCF01F0040EDBCF02F080
:102C6000036A046A85EC2EF0056EFE0A01E075D059
:102C700043EC2AF085EC2EF0066E040E065CD8B00C
:102C80005AD0FA6AFB6A0634FA36E834FA36FC0B94
:102C9000A00FE56E2C0EFA22000EFB22E450F96E16
:102CA00058EF16F064EF16F077EF16F08AEF16F093
:102CB00000C0E9FF01C0F3FF02501CEC31F0076EC9
:102CC00007C003F0046A37D00050010F076E000EF2
:102CD0000120086E000E022007C0E9FF08C0F3FFC4
:102CE0001CEC31F0076E07C003F0046A24D00050DA
:102CF000020F076E000E0120086E000E022007C0B2
:102D0000E9FF08C0F3FF1CEC31F0076E07C003F0C9
:102D1000046A11D000500F0F076E000E0120086EDC
:102D2000000E022007C0E9FF08C0F3FFA6EC30F058
:102D3000036EF3CF04F00450E56E0350E56EE56AD0
:102D40000650E56E000EE56E410EE56EB40EE56EC2
:102D5000B4EC2BF0070EE1268DD0040E055CD8B044
:102D600089D0FA6AFB6A0534FA36E834FA36FC0B85
:102D7000800FE56E2D0EFA22000EFB22E450F96E54
:102D8000C8EF16F0D5EF16F000EF17F016EF17F0BA
:102D900085EC2EF0036E03C0E5FF00C0E9FF01C023
:102DA000F3FF0250A3EC31F065D00050010F036E29
:102DB000000E0120046E000E0220056E85EC2EF040
:102DC000066E06C0E5FF03C0E9FF04C0F3FF05502F
:102DD000A3EC31F00650D8A44DD00050030F036E81
:102DE000000E0120046E000E0220E56AF46AF66A05
:102DF000F76A03C0E9FF04C0F3FF0BEC31F03AD0EF
:102E00000050020F036E000E0120046E000E02201F
:102E1000056E85EC2EF0066E06C0E5FF03C0E9FFE7
:102E200004C0F3FF0550A3EC31F024D00F0E0026B0
:102E3000000E0122022285EC2EF0066E056AE56A7C
:102E400006C0F4FF00C0E9FF01C0F3FF025075ECBB
:102E500031F085EC2EF0046A05260450062205C0E8
:102E6000E5FF06C0F4FF00C0E9FF01C0F3FF025018
:102E700075EC31F0E4CF08F0E4CF07F0E4CF06F0D2
:102E8000E4CF05F0E4CF04F0E4CF03F0E4CF02F0A8
:102E9000E4CF01F0E4CF00F0E4CFD9FF120000C08E
:102EA000E5FF01C0E5FF02C0E5FF03C0E5FF7EA22C
:102EB00023D1006A81BE002A0050010BF46E040188
:102EC0009B51FE0BF4109B6F006A81B6002A0050E4
:102ED000010A08E10401B16BB26BB36BB46BB5814D
:102EE000B58502D00401B595006A04019BB1002AA2
:102EF000016A9BB5012A0050011801E18ED0006AD9
:102F000004019BB1002A0050010BE844E844F46E30
:102F10009B51FB0BF4109B6FA951AD5D006EAA5144
:102F2000AE59016EAB51AF59026EAC51B059036E40
:102F30000050AD6F0150AE6F0250AF6F0350B06FD5
:102F4000040160510401A96F040161510401AA6FD9
:102F5000040162510401AB6F040163510401AC6FC1
:102F60000401605100266151012262510222635125
:102F7000032200500401AD6F0150AE6F0250AF6FDD
:102F80000350B06F006A81B4002A0050010BE8447E
:102F9000F46E9B51FD0BF4109B6F006A9BB1002AED
:102FA000016A9BB3012A0150D880E866D890016A73
:102FB00001360150001A005019E0B1C400F0B2C44B
:102FC00001F0B3C402F0B4C403F0002A04E3012A00
:102FD00002E3024A032A00500401B16F0150B26FAC
:102FE0000250B36F0350B46FB58317D0B1C400F073
:102FF000B2C401F0B3C402F0B4C403F0FF0E002663
:1030000001220222032200500401B16F0150B26F6D
:103010000250B36F0350B46FB59304012351D8B479
:1030200065D0B1C434FFB2C435FFB3C436FFB4C4F5
:1030300037FF03013B5104E03B073B51D8B48B847D
:103040000F01345104018A1910E10F0135510401B7
:103050008B190BE10F01365104018C1906E10F01A8
:10306000375104018D1901E141D034CF8AF435CFB5
:103070008BF436CF8CF437CF8DF4D8800F0137AF77
:10308000D89016E35A0EF66E620EF76E000EF86ECA
:103090000900F5CF00F00900F5CF01F0026A036ADC
:1030A0000050342701503523025036230350372374
:1030B00029C300F02AC301F0E86A03012ABFFF0E0A
:1030C000026E036E0F013451001809E135510118E9
:1030D00006E13651021803E13751031801E006D02A
:1030E00024C43BF38B94010E04012A6F0F01506935
:1030F000BE0E0F014F6F7E92E4CF03F0E4CF02F0DB
:10310000E4CF01F0E4CF00F0120000C0E5FF01C001
:10311000E5FF02C0E5FF03C0E5FF05C0E5FFCDEC1C
:1031200031F094928B925BEC2EF0F3CF01F0F4CF60
:1031300002F0E9CF03F0880F04018E6F130E012017
:103140008F6F000E0220906F000E0320916F9494F9
:10315000899A899E898C8982929A929E929C929257
:103160009386810E006E0F0E016E0F0E036E380EE9
:103170000026035001220F0E036E800E005E0350E6
:10318000015A810E026E0F0E036E0F0E056E380E81
:103190000226055003220F0E056E800E025E0550BA
:1031A000035A02C0E9FF03C0EAFFEFCF02F0029624
:1031B00000C0E9FF01C0EAFF02C0EFFF938E810E5D
:1031C000006E0F0E016E0F0E036E380E00260350B8
:1031D00001220F0E036E800E005E0350015A810E15
:1031E000026E0F0E036E0F0E056E380E022605508E
:1031F00003220F0E056E800E025E0550035A02C0B8
:10320000E9FF03C0EAFFEFCF02F0029E00C0E9FF32
:1032100001C0EAFF02C0EFFF9384810E006E0F0E23
:10322000016E0F0E036E380E0026035001220F0EA2
:10323000036E800E005E0350015A810E026E0F0E67
:10324000036E0F0E056E380E0226055003220F0E78
:10325000056E800E025E0550035A02C0E9FF03C0EE
:10326000EAFFEFCF02F0029400C0E9FF01C0EAFFDD
:1032700002C0EFFF0C0E0F01546F0F01549B5499C5
:103280000F01556B92980401936B020E946F956B2E
:103290000A0E966F976B100E986F070E996F9A91A2
:1032A0009A83800EE56E040EE56EB60EE56EF0ECC8
:1032B00029F0030EE126800EE56E040EE56ED70EB2
:1032C000E56E4AEC20F0030EE126800EE56E040E5A
:1032D000E56EC60EE56E4AEC20F0030EE126040111
:1032E000B16BB26BB36BB46BB591B5959C6B9D6BC9
:1032F0009E6B9F6BA46BA56BA66BA76B9A930F013C
:103300004E6B0F014E894E8B4E837F824E817E9293
:103310007D820F015069BE0E0F014F6F7E92C7EC88
:103320002DF0E568E56A010EE56EAFEC2EF0030EB8
:10333000E126E4CF05F0E4CF03F0E4CF02F0E4CFE0
:1033400001F0E4CF00F01200D9CFE5FFE1CFD9FFC3
:1033500000C0E5FF01C0E5FF02C0E5FF03C0E5FFD7
:1033600004C0E5FF05C0E5FF06C0E5FF07C0E5FFB7
:10337000020EDBCF00F0030EDBCF01F0040EDBCF3B
:1033800002F0050EDBCF03F0060EDBCF04F0070ED4
:10339000DBCF05F0080EDBCF06F0090EDBCF07F020
:1033A000005003010C6F01500D6F02500E6F03505F
:1033B0000F6F04500301106F0550116F0650126F0C
:1033C0000750136F03010C5103011203F4CF01F0F6
:1033D000F3CF00F000500301166F0150176F030187
:1033E0000C5103011003F4CF01F0F3CF00F00050B3
:1033F0000301146F0150156F03010F5103011003F6
:10340000F3CF00F00301175100260050176F03019E
:103410000E5103011103F3CF01F0015000260050BB
:103420000301176F03010E5103011003F4CF01F0E4
:10343000F3CF00F00301165100261751012200506E
:10344000166F0150176F03010D5103011103F4CFE3
:1034500003F0F3CF02F00250002603500122005087
:103460000301166F0150176F03010D510301120381
:10347000F3CF00F0005003011B6F03010D51030156
:103480001003F4CF01F0F3CF00F000500301196FE7
:1034900001501A6F03010C5103011303F3CF00F025
:1034A000005003011F6F03010C5103011103F4CFFE
:1034B00001F0F3CF00F0005003011D6F01501E6FAB
:1034C0000301186B03011C6B030118510301142540
:1034D000006E0301195103011521016E03011A51F8
:1034E00003011621026E03011B5103011721036E14
:1034F0000050146F0150156F0250166F0350176F74
:1035000003011C5103011425006E03011D51030129
:103510001521016E03011E5103011621026E0301E4
:103520001F5103011721036E03C0E9FF02C0F4FF1E
:1035300001C0F3FF0050E4CF07F0E4CF06F0E4CF82
:1035400005F0E4CF04F0E4CF03F0E4CF02F0E4CFE1
:1035500001F0E4CF00F0E4CFD9FF120000C0E5FF96
:1035600001C0E5FF04013251D8B4F7D09DA81DD0A9
:103570009EA81BD0030149510301461905E159ECEE
:1035800031F00301466BE9D0000E03014925006EBE
:10359000016A040E012200C0E9FF01C0EAFFEFCF7B
:1035A00042F3492B42C3ADFFD8D09DAAD6D09EAAE4
:1035B000D4D0ABA205D00301478159EC31F0CDD076
:1035C000ABA405D00301478359EC31F0C6D0ABA0C2
:1035D0003ED0AECF42F3800E0401331103014219F5
:1035E00004E103014789AB96B8D00301425104E0DE
:1035F00042510401331927E103014799AB960301B6
:10360000425103E00301479702D00301478742C3B9
:103610004BF344C34CF30301440503014D6F600EAB
:1036200003014C25006E016A000E012200C0E9FF73
:1036300001C0EAFF42C3EFFF4C2B4C51800A02E16C
:1036400003014C6B8AD003014799AB8686D0AECF7D
:1036500042F3030147A919D0800E0401331103017D
:10366000421911E19D9AAB9894900301465104E1EF
:10367000AD6A59EC31F007D000C4ADFF010E030173
:10368000496F9D886AD0AB8668D00301425103011F
:103690004B2703014C5103014D191BE103014B5111
:1036A0000CE14CC344F3030147B712D09D9AAB9889
:1036B0009490AD6A59EC31F00BD00301478547B7C0
:1036C00007D09D9AAB989490010EAD6E59EC31F0F5
:1036D00044D003014C510301451908E10301455150
:1036E0000301441903E059EC31F037D044C300F032
:1036F000016A004A012AE56A800EE56E0150E56E16
:103700000050E56EABEC25F0006E040EE126005093
:103710000301436F03014C190CE11F0E0301421515
:1037200003014D6F4D2B4D2B0301445103014D27D8
:103730004D9F4CC300F003014C2B016A600E002624
:10374000000E012200C0E9FF01C0EAFF42C3EFFF03
:103750004C51800A02E103014C6BE4CF01F0E4CF4D
:1037600000F0120000C0E5FF01C0E5FF02C0E5FF68
:1037700003C0E5FF04C0E5FF05C0E5FF85EC2EF0C2
:10378000006E0A0A31E000500B0A01E156D00050E9
:10379000140A01E15BD00050150A01E165D0005028
:1037A000160A01E166D00050170A01E167D0005007
:1037B0001E0A01E171D000501F0A01E185D00050BE
:1037C000200A01E18BD00050210A01E18ED0005087
:1037D000220A01E18FD00050780A01E19CD000500C
:1037E000790A01E1A3D0B2D085EC2EF0016A026E15
:1037F00085EC2EF0046A0126045002220150020BCF
:10380000E840010BE838E844F46EBD50DF0BF410DB
:10381000BD6E0150010B010BE838F46EBD50EF0B8B
:10382000F410BD6ED8900230046E0130036ED89053
:10383000043203320350BE6E89D085EC2EF0006E48
:10384000005002E08B8482D08B9480D085EC2EF0E7
:10385000006A036E85EC2EF0056A00240401256FD2
:1038600005500320266F72D085EC2EF00401236FE3
:103870006DD085EC2EF00401246F68D085EC2EF01D
:10388000006A036E85EC2EF0056A00240401276FA0
:1038900005500320286F5AD085EC2EF0006A036E85
:1038A00085EC2EF0056A0024016E05500320026E9F
:1038B00085EC2EF0E56E0250E56E0150E56EAFEC42
:1038C0002EF0030EE12642D085EC2EF0006EE56E60
:1038D00025EC2FF0E65200C03EF338D085EC2EF0F8
:1038E000E56EB0EC1FF0E65231D085EC2EF004010D
:1038F0002B6F2CD085EC2EF0D880E866D890006A2B
:1039000000360050D880E866D890006A0036005033
:103910000401296F1BD0800EE56E040EE56E930E38
:10392000E56ED0EC0FF0030EE12610D085EC2EF002
:10393000D880E866D890006A00360050D880E866E3
:10394000D890006A0036005004012C6FE4CF05F0D7
:10395000E4CF04F0E4CF03F0E4CF02F0E4CF01F0D1
:10396000E4CF00F01200D9CFE5FFE1CFD9FF00C0CE
:10397000E5FF01C0E5FF02C0E5FF03C0E5FF04C0AD
:10398000E5FF05C0E5FF06C0E5FF07C0E5FF08C08D
:10399000E5FF09C0E5FF0AC0E5FF0BC0E5FF0CC06D
:1039A000E5FF0DC0E5FF0EC0E5FF0FC0E5FF020E0D
:1039B000DBCF00F0030EDBCF01F0040EDBCF02F013
:1039C000050EDBCF03F0060EDBCF04F0070EDBCFD6
:1039D00005F0080EDBCF06F0200E076E086A06C061
:1039E00009F00A6A0B6A0C6AE56AE56AE56A095039
:1039F000E56E0350E56E0250E56E0150E56E005035
:103A0000E56E13EC1FF00D6E080EE126300E0D264C
:103A10003A0E0D5C05E30D500E6E270E0E240D6E52
:103A2000FF0E07260822E00E07240E6E000E082067
:103A30000F6E0EC0E9FF0FC0EAFF0DC0EFFF0C5084
:103A4000E56E0B50E56E0A50E56E0950E56E0350C9
:103A5000E56E0250E56E0150E56E0050E56EDEEC5D
:103A600020F0006EF3CF01F0F4CF02F0E9CF03F0C5
:103A7000080EE1260050011002100310D8A4AFD7A1
:103A800007C000F008C001F004C002F005C003F058
:103A900000C004F001C005F0004A012AE00E04262F
:103AA000000E052204C0E9FF05C0EAFFEFCF04F0D5
:103AB00002C0E9FF03C0EAFF04C0EFFF024A032A85
:103AC000000E015C02E1200E005CE2E302C0E9FFAF
:103AD00003C0EAFF000EEF6AE4CF0FF0E4CF0EF070
:103AE000E4CF0DF0E4CF0CF0E4CF0BF0E4CF0AF01C
:103AF000E4CF09F0E4CF08F0E4CF07F0E4CF06F01C
:103B0000E4CF05F0E4CF04F0E4CF03F0E4CF02F01B
:103B1000E4CF01F0E4CF00F0E4CFD9FF1200D9CF19
:103B2000E5FFE1CFD9FF00C0E5FF01C0E5FF02C01E
:103B3000E5FF03C0E5FF04C0E5FF05C0E5FF06C0E3
:103B4000E5FF07C0E5FF08C0E5FF09C0E5FF0AC0C3
:103B5000E5FF0BC0E5FF0CC0E5FF0DC0E5FF020E61
:103B6000DBCF00F0030EDBCF01F0040EDBCF02F061
:103B7000050EDBCF03F0060EDBCF04F0070EDBCF24
:103B800005F0080EDBCF06F0090EDBCF07F0D8807A
:103B900003AED890086A083608500FE0031C0C6E7C
:103BA000021C0B6E011C0A6E001C096E092A0DE135
:103BB0000A2A0BE10B4A0C2A08D000C009F001C008
:103BC0000AF002C00BF003C00CF0D88007AED8900A
:103BD000006A003600500FE0071C0D6E061C036ED5
:103BE000051C026E041C016E012A0DE1022A0BE184
:103BF000034A0D2A08D004C001F005C002F006C037
:103C000003F007C00DF00D50E56E0350E56E025055
:103C1000E56E0150E56E0C50E56E0B50E56E0A50F6
:103C2000E56E0950E56EDEEC20F0016EF3CF02F098
:103C3000F4CF03F0E9CF04F0080EE1260050081A93
:103C4000085016E0041C076E031C066E021C056E6D
:103C5000011C006E002A04E1052A02E1064A072A37
:103C600007C0E9FF06C0F4FF05C0F3FF005007D00E
:103C700004C0E9FF03C0F4FF02C0F3FF0150E4CF2A
:103C80000DF0E4CF0CF0E4CF0BF0E4CF0AF0E4CF7A
:103C900009F0E4CF08F0E4CF07F0E4CF06F0E4CF7A
:103CA00005F0E4CF04F0E4CF03F0E4CF02F0E4CF7A
:103CB00001F0E4CF00F0E4CFD9FF120000C0E5FF2F
:103CC00001C0E5FF02C0E5FF03C0E5FF04C0E5FF5A
:103CD00005C0E5FF06C0E5FF07C0E5FF72B202D0F0
:103CE000E86A90D0A4B802D0E86A8CD004013551BB
:103CF000FD0A03E13651FF0A01E009D0D2EC31F0B0
:103D0000736AFE0E0401356F3669E86A7BD00401E0
:103D10003551FE0A03E13651FF0A01E00DD05BEC9C
:103D20002EF0F3CF01F00301356F0150366F04011F
:103D300035693669E86A66D004013551FF0A03E146
:103D40003651FF0A01E02DD05BEC2EF0006EF3CF70
:103D500001F0F4CF02F0E9CF03F035C304F036C32D
:103D600005F0E86A030136BFFF0E066E076E0450C9
:103D7000005E0550015A0650025A0750035A039E2E
:103D8000000E035C08E1000E025C05E1000E015C20
:103D900002E1090E005C03E30401356B366BE86A4F
:103DA00031D004013551361109E1D6EC31F0736A96
:103DB000010E0401356F366BE86A24D035C400F07B
:103DC00036C401F00401353F01D0362B080E002621
:103DD000030E012200C0E9FF01C0EAFFEFCF73FF2D
:103DE00004013551040A02E1365101E00AD0FD0E0A
:103DF0000401356F36690301373F01D0382B010EBE
:103E000001D0E86AE4CF07F0E4CF06F0E4CF05F094
:103E1000E4CF04F0E4CF03F0E4CF02F0E4CF01F00C
:103E2000E4CF00F01200D9CFE5FFE1CFD9FF00C009
:103E3000E5FF01C0E5FF02C0E5FF03C0E5FF04C0E8
:103E4000E5FF05C0E5FF06C0E5FF07C0E5FF08C0C8
:103E5000E5FF09C0E5FF0AC0E5FF020EDBCF00F079
:103E6000030EDBCF01F0040EDBCF02F0050EDBCF3B
:103E700003F0060EDBCF04F0070EDBCF05F0080ED3
:103E8000DBCF06F0090EDBCF07F0086A04500510FF
:103E90000610071005E1E968F468F368E86847D0A0
:103EA000096A0750800BE8440A6E0A501BE104506F
:103EB00004260536063607360750035C08E106502F
:103EC000025C05E10550015C02E10450005C06E281
:103ED000D890073206320532043204D0092A09C0CC
:103EE00008F0DFD70750035C08E10650025C05E1EB
:103EF0000550015C02E10450005C08E30450005EE0
:103F00000550015A0650025A0750035AD8900732FA
:103F100006320532043208C009F008060950E2E111
:103F200003C0E9FF02C0F4FF01C0F3FF0050E4CF7B
:103F30000AF0E4CF09F0E4CF08F0E4CF07F0E4CFD3
:103F400006F0E4CF05F0E4CF04F0E4CF03F0E4CFD3
:103F500002F0E4CF01F0E4CF00F0E4CFD9FF12008B
:103F6000D9CFE5FFE1CFD9FF00C0E5FF01C0E5FFF4
:103F700002C0E5FF03C0E5FF04C0E5FF05C0E5FFA3
:103F800006C0E5FF07C0E5FF020EDBCF00F0010E23
:103F9000E56E25EC2FF0E6525BEC2EF0016EF3CFD0
:103FA00002F0F4CF03F0E9CF04F0E56AE56AE56AD0
:103FB0000050E56EE56A0F0EE56E420EE56E400EAE
:103FC000E56EA4EC19F0006EF3CF05F0F4CF06F027
:103FD000E9CF07F0080EE126E56AE56A030EE56E13
:103FE000E80EE56E0750E56E0650E56E0550E56E8D
:103FF0000050E56EDEEC20F0006EF3CF05F0F4CF5C
:1040000006F0E9CF07F0080EE12600500124006E0B
:1040100005500220026E06500320036E0750042054
:10402000016E5BEC2EF0046EF3CF05F0F4CF06F0DA
:10403000E9CF07F00050045E0250055A0350065ABB
:104040000150075A079E3F0E075C08E1FF0E065C11
:1040500005E1FF0E055C02E1FF0E045C03E3FBECEF
:1040600021F0DFD7000EE56A25EC2FF0E652E4CF11
:1040700007F0E4CF06F0E4CF05F0E4CF04F0E4CF9E
:1040800003F0E4CF02F0E4CF01F0E4CF00F0E4CF9E
:10409000D9FF1200D9CFE5FFE1CFD9FF00C0E5FF7E
:1040A00001C0E5FF02C0E5FF03C0E5FF04C0E5FF76
:1040B00005C0E5FF06C0E5FF07C0E5FF020EDBCF48
:1040C00000F0030EDBCF01F0040EDBCF02F0005056
:1040D0000B0F036E000E0120046E000E0220E56A35
:1040E000F46AF66AF76A03C0E9FF04C0F3FF0BEC59
:1040F00031F00050070F036E000E0120046E000E19
:104100000220056E0050030F066E000E0120076EA0
:10411000000E0220E56AF46AF66AF76A06C0E9FF53
:1041200007C0F3FF0BEC31F0E56AF46AF66AF76A50
:1041300003C0E9FF04C0F3FF05500BEC31F0005061
:10414000010F036E000E0120046E000E0220056EAA
:104150000050020F066E000E0120076E000E0220B6
:10416000E56A06C0E9FF07C0F3FFA3EC31F0E56A9A
:1041700003C0E9FF04C0F3FF0550A3EC31F0E56A8A
:1041800000C0E9FF01C0F3FF0250A3EC31F0E4CF1F
:1041900007F0E4CF06F0E4CF05F0E4CF04F0E4CF7D
:1041A00003F0E4CF02F0E4CF01F0E4CF00F0E4CF7D
:1041B000D9FF120025642025640A0000D9CFE5FF4D
:1041C000E1CFD9FF00C0E5FF01C0E5FF02C0E5FF78
:1041D00003C0E5FF04C0E5FF05C0E5FF06C0E5FF3D
:1041E00007C0E5FF08C0E5FF09C0E5FF0AC0E5FF1D
:1041F0000BC0E5FF0CC0E5FF0DC0E5FF020EDBCFF5
:1042000000F0030EDBCF01F0040EDBCF02F0050E51
:10421000DBCF03F0060EDBCF04F0070EDBCF05F09B
:10422000080EDBCF06F0090EDBCF07F0086A096A3B
:104230000A6A0B6A200E0C6E0350800BE8440D6E68
:10424000005000260136023603360850082609368B
:104250000A360B360D50D8A4088007500B5C08E1D5
:1042600006500A5C05E10550095C02E10450085C57
:1042700009E30450085E0550095A06500A5A0750CF
:104280000B5A00800C040D6E0DC00CF00D50D4E1E3
:1042900003C0E9FF02C0F4FF01C0F3FF0050E4CF08
:1042A0000DF0E4CF0CF0E4CF0BF0E4CF0AF0E4CF54
:1042B00009F0E4CF08F0E4CF07F0E4CF06F0E4CF54
:1042C00005F0E4CF04F0E4CF03F0E4CF02F0E4CF54
:1042D00001F0E4CF00F0E4CFD9FF120000C0E5FF09
:1042E00001C0E5FF03C0E5FF04C0E5FF05C0E5FF31
:1042F00006C0E5FF07C0E5FF08C0E5FF09C0E5FF10
:104300000AC0E5FF0BC0E5FF2BC300F02CC301F092
:1043100003012B3F01D02C2B0050E56E4BEC31F00C
:10432000E652076E046A056A066A2BC300F02CC3C6
:1043300001F003012B3F01D02C2B0050E56E4BEC1C
:1043400031F0E6520B6A0A6E086A08500412051230
:104350000A5006120B5007122BC300F02CC301F0B9
:1043600003012B3F01D02C2B0050E56E4BEC31F0BC
:10437000E652036E006A03C001F0E86A03BEFF0E56
:10438000086E096E00500412015005120850061202
:10439000095007122BC300F02CC301F003012B3F7F
:1043A00001D02C2B0050E56E4BEC31F0E652016A47
:1043B0000412015005120612071207C0E9FF06C0D9
:1043C000F4FF05C0F3FF0450E4CF0BF0E4CF0AF094
:1043D000E4CF09F0E4CF08F0E4CF07F0E4CF06F033
:1043E000E4CF05F0E4CF04F0E4CF03F0E4CF01F034
:1043F000E4CF00F0120000C0E5FF01C0E5FF02C0FD
:10440000E5FF03C0E5FF04C0E5FF030145510301DB
:10441000441901E15FD045C300F0002A009E600E00
:104420000024016E026A000E022201C0E9FF02C0F0
:10443000EAFFEFCF4FF31F0E03014F1745C34EF3B3
:104440004F5103014E274E2B4E2B4E9F85EC2EF0E5
:10445000016E015003E1016A012A01D0016A85EC75
:104460002EF003014F6F800E4F15026E1F0E4F1579
:10447000036E03C004F003C04FF3045003E144C3D0
:1044800045F33BD001501BE0025022E085EC2EF0BA
:10449000006E03014F070050420A1AE000504E0A16
:1044A00003E131EC2BF014D00050460A03E198EC04
:1044B00031F00ED00050490A0BE1FF0009D045C38E
:1044C00050F3025003E033EC2CF002D0B2EC1BF0BE
:1044D0004EC345F304012F510401301906E00301D6
:1044E000465103E1A1EC23F008D094B006D00301BB
:1044F000465103E1ACB259EC31F0E4CF04F0E4CF23
:1045000003F0E4CF02F0E4CF01F0E4CF00F01200BA
:10451000D9CFE5FFE1CFD9FF00C0E5FF01C0E5FF3E
:1045200002C0E5FF03C0E5FF04C0E5FF05C0E5FFED
:1045300006C0E5FF07C0E5FF08C0E5FF0BC0E5FFCB
:104540000CC0E5FF0DC0E5FF020EDBCF00F0030E4F
:10455000DBCF01F0040EDBCF02F0050EDBCF03F062
:10456000060EDBCF04F003C0E5FF04C0F4FF00C07B
:10457000E9FF01C0F3FF025075EC31F00050020F6B
:10458000056E000E0120066E000E0220076EE86A1E
:1045900004BEFF0E086E04500C6E0C2608340D6E1F
:1045A000D8900C360D360344E844FC0B0B6E0350D8
:1045B000E844E844030B0C12E56A0BC0F4FF0CC09E
:1045C000F6FF0DC0F7FF05C0E9FF06C0F3FF075077
:1045D0000BEC31F0080E0026000E01220222E56AE3
:1045E000F46AF66AF76A00C0E9FF01C0F3FF0250FF
:1045F0000BEC31F0E4CF0DF0E4CF0CF0E4CF0BF096
:10460000E4CF08F0E4CF07F0E4CF06F0E4CF05F004
:10461000E4CF04F0E4CF03F0E4CF02F0E4CF01F004
:10462000E4CF00F0E4CFD9FF1200D9CFE5FFE1CF0E
:10463000D9FF00C0E5FF01C0E5FF02C0E5FF03C0F0
:10464000E5FF04C0E5FF05C0E5FF06C0E5FF07C0C4
:10465000E5FF020EDBCF00F0030EDBCF01F0040E0E
:10466000DBCF02F0050EDBCF03F002C006F00650F0
:10467000046E800A33E100C0E9FF01C0F3FF02507D
:10468000E7EC2FF0056EF3CF06F0F4CF07F003C090
:10469000E5FF05C0E9FF06C0F3FF0750A3EC31F0CA
:1046A00000C0E9FF01C0F3FF0250E7EC2FF0056EF8
:1046B000F3CF06F0F4CF07F0052A02E3064A072AF3
:1046C00005C0E5FF06C0F4FF07C0F6FF00C0E9FF24
:1046D00001C0F3FF02503CEC31F020D004C000F0E8
:1046E00000AA1CD0007A0050046E04E10350DAECFA
:1046F00031F014D00450010A04E1035002EC00F040
:104700000DD004500F0A04E10350F9EC2DF006D04F
:1047100004500E0A03E10350EAEC31F0E4CF07F055
:10472000E4CF06F0E4CF05F0E4CF04F0E4CF03F0EB
:10473000E4CF02F0E4CF01F0E4CF00F0E4CFD9FF02
:10474000120000C0E5FF01C0E5FF02C0E5FF03C0A5
:10475000E5FFACA276D08DEC2FF0006E005005E1A5
:104760000401306B04012F6B6CD030C401F0005099
:1047700001268DEC2FF0026E00060250230A1FE185
:10478000010E005CD8A05BD08DEC2FF0026E690AA0
:1047900003E12AEC2EF053D00250720A03E159ECE7
:1047A00031F04DD00250730A01E049D09480AB86BD
:1047B0009D8A9D98AE50AE50AB98AB8840D00250C9
:1047C000430A05E00250420A01E039D001D0008ED0
:1047D00000C048F300500401006F010E0301496F4F
:1047E00004013051011814E08DEC2FF0026E03012A
:1047F0004827000E03014925006E036A040E0322B8
:1048000000C0E9FF03C0EAFF02C0EFFF492BE8D771
:10481000000E03014925006E026A040E0222030104
:10482000481D036E032A00C0E9FF02C0EAFF03C06F
:10483000EFFF0301492B49C346F30301406B01C05D
:1048400030F4E4CF03F0E4CF02F0E4CF01F0E4CFA2
:1048500000F01200D9CFE5FFE1CFD9FF00C0E5FF9E
:1048600001C0E5FF02C0E5FF03C0E5FF04C0E5FFAE
:1048700005C0E5FF06C0E5FF020EDBCF00F0030E2A
:10488000DBCF01F0040EDBCF02F0050EDBCF03F02F
:1048900003C004F0056A0350D8B44FD000C0E9FF4C
:1048A00001C0F3FF02501CEC31F0066E430A03E135
:1048B000010E056E038E0406002A02E3014A022A55
:1048C0009D9AAB9894909D989EA8FED7AC80AD6AB7
:1048D00000009EA8FED7AC9003C0ADFF00009EA8CC
:1048E000FED7055004E0420EAD6E032604D0620EE2
:1048F000AD6E620E0326045015E000009EA8FED7A0
:1049000000C0E9FF01C0F3FF02501CEC31F0056E5E
:1049100005C0ADFF055003260406002A02E3014A44
:10492000022AE9D700009EA8FED7031CAD6EAD2A6F
:1049300000009EA8FED759EC31F0E4CF06F0E4CF9A
:1049400005F0E4CF04F0E4CF03F0E4CF02F0E4CFCD
:1049500001F0E4CF00F0E4CFD9FF1200D9CFE5FF9A
:10496000E1CFD9FF00C0E5FF01C0E5FF02C0E5FFD0
:1049700003C0E5FF04C0E5FF05C0E5FF06C0E5FF95
:1049800007C0E5FF08C0E5FF09C0E5FF0AC0E5FF75
:104990000BC0E5FF0CC0E5FF020EDBCF00F0030EFD
:1049A000DBCF01F0040EDBCF02F0050EDBCF03F00E
:1049B000060EDBCF04F0070EDBCF05F0080EDBCFD1
:1049C00006F0090EDBCF07F002500A6E0150096EA7
:1049D0000050086E06C00BF007C00CF0FF0E062654
:1049E00007220B500C101AE003C0E9FF04C0F3FFCC
:1049F00005501CEC31F00B6E032A02E3044A052A31
:104A00000BC0E5FF08C0E9FF09C0F3FF0A50A3ECA3
:104A100031F0082ADFE3094A0A2ADCD702C0F4FF92
:104A200001C0F3FF0050E4CF0CF0E4CF0BF0E4CF73
:104A30000AF0E4CF09F0E4CF08F0E4CF07F0E4CFC8
:104A400006F0E4CF05F0E4CF04F0E4CF03F0E4CFC8
:104A500002F0E4CF01F0E4CF00F0E4CFD9FF120080
:104A6000D9CFE5FFE1CFD9FF00C0E5FF01C0E5FFE9
:104A700002C0E5FF03C0E5FF04C0E5FF05C0E5FF98
:104A800006C0E5FF07C0E5FF020EDBCF00F0030E16
:104A9000DBCF01F0040EDBCF02F0050EDBCF03F01D
:104AA00030C431F404012F510401315F310703C0D8
:104AB00004F0056A030E0426D8B0052A31C406F0B6
:104AC000076A0750800FF36E0550800FF35C02E118
:104AD0000450065C02E2E8682BD0020E035C02E29E
:104AE000E86A26D003060350E56EADEC2CF0E652E2
:104AF000046A0350045C14E204500024056EE86A62
:104B00000120066EE86A022005C0E9FF06C0F3FF37
:104B10001CEC31F0042AE56EADEC2CF0E652E9D73E
:104B200030C431F404012F510401315F3107E86AC8
:104B3000E4CF07F0E4CF06F0E4CF05F0E4CF04F0D3
:104B4000E4CF03F0E4CF02F0E4CF01F0E4CF00F0D3
:104B5000E4CFD9FF1200D9CFE5FFE1CFD9FF00C0E4
:104B6000E5FF01C0E5FF02C0E5FF03C0E5FF04C0AB
:104B7000E5FF05C0E5FF06C0E5FF020EDBCF00F054
:104B8000030EDBCF01F0040EDBCF02F0050EDBCF0E
:104B900003F0D88001AED890046A0436045007E0D0
:104BA000011C066E001C056E054A062A04D000C0D2
:104BB00005F001C006F0D88003AED89007E3031CCF
:104BC000016E021C006E004A012A04D002C000F0EF
:104BD00003C001F00150E56E0050E56E0650E56E31
:104BE0000550E56E3EEC29F0006EF3CF01F0040EA7
:104BF000E12604500AE0011C036E001C026E024A0A
:104C0000032A03C0F3FF025003D001C0F3FF00509A
:104C1000E4CF06F0E4CF05F0E4CF04F0E4CF03F0F6
:104C2000E4CF02F0E4CF01F0E4CF00F0E4CFD9FF0D
:104C30001200D9CFE5FFE1CFD9FF00C0E5FF01C0E9
:104C4000E5FF02C0E5FF03C0E5FF04C0E5FF05C0C6
:104C5000E5FF020EDBCF00F0030EDBCF01F0040E08
:104C6000DBCF02F0050EDBCF03F02BC304F02CC327
:104C700005F003012B3F01D02C2B0350E56E0450AF
:104C8000E56E49EC2FF0E652E6522BC304F02CC33C
:104C900005F003012B3F01D02C2B0250056EE56E71
:104CA0000450E56E49EC2FF0E652E6522BC304F0B7
:104CB0002CC305F003012B3F01D02C2B0150056EB6
:104CC000E56E0450E56E49EC2FF0E652E6522BC338
:104CD00004F02CC305F003012B3F01D02C2B005016
:104CE000E56E0450E56E49EC2FF0E652E652E4CF53
:104CF00005F0E4CF04F0E4CF03F0E4CF02F0E4CF1A
:104D000001F0E4CF00F0E4CFD9FF1200D9CFE5FFE6
:104D1000E1CFD9FF00C0E5FF01C0E5FF02C0E5FF1C
:104D200003C0E5FF04C0E5FF05C0E5FF08C0E5FFDF
:104D300009C0E5FF0AC0E5FF020EDBCF00F0030E5D
:104D4000DBCF01F0040EDBCF02F0050EDBCF03F06A
:104D5000060EDBCF04F003C0E5FF04C0F4FF00C083
:104D6000E9FF01C0F3FF025075EC31F0020E00269E
:104D7000000E0122022204BEFF0E056E0450096ED1
:104D8000092605340A6ED89009360A360344E844E9
:104D9000FC0B086E0350E844E844030B0912E56A73
:104DA00008C0F4FF09C0F6FF0AC0F7FF00C0E9FF22
:104DB00001C0F3FF02500BEC31F0E4CF0AF0E4CF76
:104DC00009F0E4CF08F0E4CF05F0E4CF04F0E4CF3D
:104DD00003F0E4CF02F0E4CF01F0E4CF00F0E4CF41
:104DE000D9FF1200D9CFE5FFE1CFD9FF00C0E5FF21
:104DF00001C0E5FF02C0E5FF03C0E5FF04C0E5FF19
:104E000005C0E5FF06C0E5FF020EDBCF00F0030E94
:104E1000DBCF01F0040EDBCF02F003013F5119E1BB
:104E20006EEC21F0036EF3CF04F0F4CF05F0E9CF80
:104E300006F003C0E5FF04C0F4FF05C0F6FF06C09E
:104E4000F7FF00C0E9FF01C0F3FF02500BEC31F0A7
:104E50001ED003013F51010A1AE100C0E9FF01C061
:104E6000F3FF02506DEC2FF0006EF3CF01F0F4CFA2
:104E700002F0E9CF03F00350E56E0250E56E0150F9
:104E8000E56E0050E56E19EC26F0040EE126E4CF45
:104E900006F0E4CF05F0E4CF04F0E4CF03F0E4CF74
:104EA00002F0E4CF01F0E4CF00F0E4CFD9FF12002C
:104EB000D9CFE5FFE1CFD9FF00C0E5FF01C0E5FF95
:104EC00002C0E5FF03C0E5FF04C0E5FF020EDBCF33
:104ED00000F0030EDBCF01F0040EDBCF02F0005038
:104EE000070F036E000E0120046E000E0220E56E17
:104EF0000450E56E0350E56EF4EC2BF0030EE12652
:104F00000050230F036E000E0120046E000E0220DD
:104F1000E56E0450E56E0350E56E9BEC29F0030E40
:104F2000E1260050330F036E000E0120046E000EC8
:104F30000220E56E0450E56E0350E56E81EC28F02A
:104F4000030EE126440E0026000E0122022202502A
:104F5000E56E0150E56E0050E56E81EC28F0030E21
:104F6000E126E4CF04F0E4CF03F0E4CF02F0E4CF95
:104F700001F0E4CF00F0E4CFD9FF1200D9CFE5FF74
:104F8000E1CFD9FF00C0E5FF01C0E5FF02C0E5FFAA
:104F900003C0E5FF04C0E5FF05C0E5FF06C0E5FF6F
:104FA000020EDBCF00F0030EDBCF01F0040EDBCFEF
:104FB00002F0050EDBCF03F0060EDBCF04F0070E88
:104FC000DBCF05F0080EDBCF06F0D88003AED8901B
:104FD00015E306500A0A12E104C0E9FF05C0EAFF22
:104FE0002D0EEF6E044A052A031E021E011E006CE0
:104FF00005E1012A03E1022AD8B4032A0650E56E2E
:105000000550E56E0450E56E0350E56E0250E56E06
:105010000150E56E0050E56EB3EC1CF0070EE12682
:10502000E4CF06F0E4CF05F0E4CF04F0E4CF03F0E2
:10503000E4CF02F0E4CF01F0E4CF00F0E4CFD9FFF9
:105040001200D8CFE5FFE0CFE5FFE56EF3CFE5FF37
:10505000F4CFE5FFE9CFE5FFEACFE5FFFACFE5FFC3
:10506000FBCFE5FFF6CFE5FFF6CFE5FFF7CFE5FF96
:10507000F8CFE5FFF5CFE5FFE1CFE5FFE2CFE5FFB4
:1050800004012D510401626F04012E510401636F6C
:10509000D650606FD750616FF2A411D004012D3F3C
:1050A00001D02E2BF29404012D510401626F0401F2
:1050B0002E510401636FD650606FD750616F4FEC73
:1050C00017F0E4CFE2FFE4CFE1FFE4CFF5FFE4CF58
:1050D000F8FFE4CFF7FFE4CFF6FFE4CFF6FFE4CF2D
:1050E000FBFFE4CFFAFFE4CFEAFFE4CFE9FFE4CF30
:1050F000F4FFE4CFF3FFE450E4CFE0FFE4CFD8FFC8
:105100001000D9CFE5FFE1CFD9FF00C0E5FF01C016
:10511000E5FF02C0E5FF03C0E5FF04C0E5FF020EA6
:10512000DBCF00F0030EDBCF01F0040EDBCF02F08B
:105130000250E56E0150E56E0050E56EF4EC2BF088
:10514000030EE1260050010F036E000E0120046ED5
:10515000000E0220E56E0450E56E0350E56EF4EC9F
:105160002BF0030EE1260050020F036E000E01200B
:10517000046E000E0220E56E0450E56E0350E56EED
:10518000F4EC2BF0030EE1260F0E0026000E012298
:1051900002220250E56E0150E56E0050E56E95EC7E
:1051A0002AF0030EE126E4CF04F0E4CF03F0E4CFCD
:1051B00002F0E4CF01F0E4CF00F0E4CFD9FF120019
:1051C000D9CFE5FFE1CFD9FF00C0E5FF01C0E5FF82
:1051D00002C0E5FF03C0E5FF04C0E5FF05C0E5FF31
:1051E000020EDBCF00F0030EDBCF01F0040EDBCFAD
:1051F00002F000500B0F036E000E0120046E000E33
:105200000220E56AF46AF66AF76A03C0E9FF04C09F
:10521000F3FF0BEC31F00050070F036E000E01207E
:10522000046E000E0220056E030E0026000E012201
:105230000222E56AF46AF66AF76A00C0E9FF01C073
:10524000F3FF02500BEC31F0E56AF46AF66AF76A94
:1052500003C0E9FF04C0F3FF05500BEC31F0E4CFCD
:1052600005F0E4CF04F0E4CF03F0E4CF02F0E4CFA4
:1052700001F0E4CF00F0E4CFD9FF1200D9CFE5FF71
:10528000E1CFD9FF00C0E5FF01C0E5FF02C0E5FFA7
:1052900003C0E5FF04C0E5FF05C0E5FF06C0E5FF6C
:1052A000020EDBCF00F0030EDBCF01F0040EDBCFEC
:1052B00002F0050EDBCF03F0046A056A0350800B91
:1052C000E844066E065011E10250022603360350F0
:1052D000015C02E10250005C04E2D8900332023229
:1052E00004D0052A05C004F0E9D70350015C02E1AF
:1052F0000250005C04E30250005E0350015AD89053
:105300000332023204C005F004060550EEE101C08C
:10531000F3FF0050E4CF06F0E4CF05F0E4CF04F053
:10532000E4CF03F0E4CF02F0E4CF01F0E4CF00F0EB
:10533000E4CFD9FF1200D9CFE5FFE1CFD9FF00C0FC
:10534000E5FF01C0E5FF02C0E5FF03C0E5FF04C0C3
:10535000E5FF020EDBCF00F0030EDBCF01F0040E01
:10536000DBCF02F00050060F036E000E0120046E2A
:10537000000E0220E56E0450E56E0350E56E95ECDC
:105380002AF0030EE12600500C0F036E000E0120E0
:10539000046E000E0220E56E0450E56E0350E56ECB
:1053A00095EC2AF0030EE1260E0E0026000E0122D7
:1053B00002220250E56E0150E56E0050E56E95EC5C
:1053C0002AF0030EE126E4CF04F0E4CF03F0E4CFAB
:1053D00002F0E4CF01F0E4CF00F0E4CFD9FF1200F7
:1053E000D9CFE5FFE1CFD9FF00C0E5FF01C0E5FF60
:1053F00002C0E5FF03C0E5FF04C0E5FF020EDBCFFE
:1054000000F0030EDBCF01F0040EDBCF02F0E56A03
:10541000F46A00C0E9FF01C0F3FF025075EC31F0FF
:105420000050020F036E000E0120046E000E0220D9
:10543000E56AF46AF66AF76A03C0E9FF04C0F3FF9D
:105440000BEC31F0080E0026000E01220222E56A64
:10545000F46AF66AF76A00C0E9FF01C0F3FF025080
:105460000BEC31F0E4CF04F0E4CF03F0E4CF02F032
:10547000E4CF01F0E4CF00F0E4CFD9FF12002564BF
:105480002025640A000000C0E5FF01C0E5FF02C05E
:10549000E5FF03C0E5FF45C300F0016A50C302F019
:1054A000036A0250005E0350015AE56A800EE56E01
:1054B0000150E56E0050E56EABEC25F0006E040E79
:1054C000E126000650C301F0430EF9EC2DF0200E4A
:1054D000F9EC2DF0005020E0600E0124026E036A0A
:1054E000000E032202C0E9FF03C0EAFFEFCF02F083
:1054F000E56A0250E56E000EE56E620EE56ECA0EBC
:10550000E56EB4EC2BF0050EE126012A0150800A6D
:1055100001E1016A0006DED7E4CF03F0E4CF02F038
:10552000E4CF01F0E4CF00F01200D9CFE5FFE1CFE6
:10553000D9FF00C0E5FF01C0E5FF02C0E5FF03C0E1
:10554000E5FF04C0E5FF020EDBCF00F0030EDBCF6A
:1055500001F0040EDBCF02F003013F5111E193ECA7
:105560002DF0036EF3CF04F003C0E5FF04C0F4FF99
:1055700000C0E9FF01C0F3FF025075EC31F016D016
:1055800003013F51010A12E100C0E9FF01C0F3FF2E
:105590000250A6EC30F0006EF3CF01F00150E56E42
:1055A0000050E56E70EC2CF0E652E652E4CF04F0C9
:1055B000E4CF03F0E4CF02F0E4CF01F0E4CF00F059
:1055C000E4CFD9FF12008C0EF66E630EF76E000E5C
:1055D000F86E0900F550056E0900F550066E04E1FD
:1055E000056702D030EF2BF00900F550006E09007E
:1055F000F550016E0900F550026E09000900F550E2
:10560000E96E0900F550EA6E090009000900F5503D
:10561000036E0900F550046E09000900F6CF07F08B
:10562000F7CF08F0F8CF09F000C0F6FF01C0F7FF90
:1056300002C0F8FF035002E1045007E00900F550F2
:10564000EE6E0306F8E20406F9D707C0F6FF08C0BD
:10565000F7FF09C0F8FF050601E20606EFEF2AF0A2
:10566000120000C0E5FF01C0E5FF02C0E5FF85ECC8
:105670002EF0006E85EC2EF0016E0050026ED00E02
:105680000224006E0A0E005C05E30050026EF90E63
:105690000224006E0150026ED00E0224016E0A0E2A
:1056A000015C05E30150026EF90E0224016E080E42
:1056B000005C12E2100E015CD8B00ED00038F00B86
:1056C0000124006E24EC2DF0016E015005E1005024
:1056D000E56E1CEC30F0E652E4CF02F0E4CF01F0CE
:1056E000E4CF00F01200D8CFE5FFE0CFE5FFE56E94
:1056F000F3CFE5FFF4CFE5FFE9CFE5FFEACFE5FF24
:10570000FACFE5FFFBCFE5FFF6CFE5FFF6CFE5FFEC
:10571000F7CFE5FFF8CFE5FFF5CFE5FFE1CFE5FFF8
:10572000E2CFE5FFAEEC1AF0E4CFE2FFE4CFE1FF19
:10573000E4CFF5FFE4CFF8FFE4CFF7FFE4CFF6FFC7
:10574000E4CFF6FFE4CFFBFFE4CFFAFFE4CFEAFFBC
:10575000E4CFE9FFE4CFF4FFE4CFF3FFE450E4CF7C
:10576000E0FFE4CFD8FF1000D9CFE5FFE1CFD9FFAC
:1057700000C0E5FF01C0E5FF02C0E5FF020ED9242D
:10578000006E000EDA20016E800E026E030E0026FF
:10579000000E012202220250E56E0150E56E00501B
:1057A000E56E040EDBCFE5FF030EDBCFE5FF020E57
:1057B000DBCFE5FF03012251E56E2151E56E20515B
:1057C000E56E59EC05F0006EF3CF01F0090EE1260D
:1057D00001C0F3FF0050E4CF02F0E4CF01F0E4CFCA
:1057E00000F0E4CFD9FF1200D9CFE5FFE1CFD9FF18
:1057F00000C0E5FF01C0E5FF02C0E5FF03C0E5FF13
:10580000020EDBCF00F0030EDBCF01F0040EDBCF86
:1058100002F003013F510DE17AEC30F0036E03C05A
:10582000E5FF00C0E9FF01C0F3FF0250A3EC31F037
:105830000FD003013F51010A0BE100C0E9FF01C095
:10584000F3FF02501CEC31F0E56EFFEC2EF0E65257
:10585000E4CF03F0E4CF02F0E4CF01F0E4CF00F0B6
:10586000E4CFD9FF120000C0E5FF01C0E5FF85ECE1
:105870002EF0006E4C0A08E185EC2EF0300A02E0B2
:105880008B8229D08B9227D00050450A24E1000E4C
:10589000E56E620EE56E720EE56EB4EC2BF0030E53
:1058A000E126E4EC31F0006E00C001F0000601508A
:1058B0000FE085EC2EF0E56AE56E000EE56E620EF7
:1058C000E56E740EE56EB4EC2BF0050EE126ECD718
:1058D0000A0EF9EC2DF0E4CF01F0E4CF00F0120055
:1058E000D9CFE5FFE1CFD9FF00C0E5FF01C0E5FF5B
:1058F00002C0E5FF03C0E5FF020EDBCF00F0030EA0
:10590000DBCF01F02BC302F02CC303F003012B3FCC
:1059100001D02C2B0150E56E0250E56E49EC2FF0C2
:10592000E652E6522BC302F02CC303F003012B3FD7
:1059300001D02C2B0050E56E0250E56E49EC2FF0A3
:10594000E652E652E4CF03F0E4CF02F0E4CF01F0F8
:10595000E4CF00F0E4CFD9FF1200D9CFE5FFE1CFCB
:10596000D9FF00C0E5FF01C0E5FF02C0E5FF03C0AD
:10597000E5FF04C0E5FF020EDBCF00F02FC401F00D
:10598000026A014A022A30C403F0046A0150031873
:1059900003E10250041801E001D00ED0000E040112
:1059A0002F25016E026A010E022201C0E9FF02C02A
:1059B000EAFF00C0EFFF2F2BE4CF04F0E4CF03F0A9
:1059C000E4CF02F0E4CF01F0E4CF00F0E4CFD9FF60
:1059D0001200D9CFE5FFE1CFD9FF00C0E5FF01C03C
:1059E000E5FF02C0E5FF03C0E5FF020EDBCF00F0DC
:1059F000016A50C302F0036A0250002603500122DC
:105A0000E56A800EE56E0150E56E0050E56EABEC88
:105A100025F0006EF3CF01F0040EE126600E0026A3
:105A2000000E012200C0E9FF01C0EAFFEFCF00F045
:105A30000050E4CF03F0E4CF02F0E4CF01F0E4CF74
:105A400000F0E4CFD9FF120000C0E5FF01C0E5FF80
:105A500002C0E5FF010E006E85EC2EF0016E01C064
:105A600002F0015023E00050E56E4BEC31F0016E86
:105A7000E652015010E10A0E005C0BE20A0E006EC5
:105A8000E56E4BEC31F0016EE652015004E1E8683E
:105A90000ED0E8680CD00150021802E0E86807D088
:105AA000002A1B0E005CD8E3E86801D0E86AE4CF66
:105AB00002F0E4CF01F0E4CF00F01200D9CFE5FF0F
:105AC000E1CFD9FF00C0E5FF01C0E5FF02C0E5FF5F
:105AD00003C0E5FF04C0E5FF020EDBCF00F0030EBC
